{
	"priority_fee": "55052500000000",
	"raw_input": "0xa9059cbb0000000000000000000000009f132f4926d42dea0d9e0ccd95cd8d554ba1ff3b000000000000000000000000000000000000000000000000000002053fc18c10",
	"result": "success",
	"hash": "0xd4d9309b26b824b2f87361e217c77183497a71f0878e40b37d63cfb6ee9f7a4b",
	"max_fee_per_gas": "1063496617",
	"revert_reason": null,
	"confirmation_duration": [
		0,
		12000
	],
	"transaction_burnt_fee": "45838778280955",
	"type": 2,
	"token_transfers_overflow": false,
	"confirmations": 133,
	"position": 57,
	"max_priority_fee_per_gas": "500000000",
	"transaction_tag": null,
	"created_contract": null,
	"value": "0",
	"from": {
		"ens_domain_name": null,
		"hash": "0xA5c091b8da7930f4e62001c816B39144B4a292a4",
		"implementations": [],
		"is_contract": false,
		"is_scam": false,
		"is_verified": false,
		"metadata": null,
		"name": null,
		"private_tags": [],
		"proxy_type": null,
		"public_tags": [],
		"watchlist_names": []
	},
	"gas_used": "110105",
	"status": "ok",
	"to": {
		"ens_domain_name": null,
		"hash": "0x23878914EFE38d27C4D67Ab83ed1b93A74D4086a",
		"implementations": [
			{
				"address": "0x7EfFD7b47Bfd17e52fB7559d3f924201b9DbfF3d",
				"address_hash": "0x7EfFD7b47Bfd17e52fB7559d3f924201b9DbfF3d",
				"name": "AToken"
			}
		],
		"is_contract": true,
		"is_scam": false,
		"is_verified": true,
		"metadata": null,
		"name": "Aave v3 USDT",
		"private_tags": [],
		"proxy_type": "eip1967",
		"public_tags": [],
		"watchlist_names": []
	},
	"authorization_list": [],
	"method": "transfer",
	"fee": {
		"type": "actual",
		"value": "100891278280955"
	},
	"actions": [],
	"gas_limit": "168219",
	"gas_price": "916318771",
	"decoded_input": {
		"method_call": "transfer(address recipient, uint256 amount)",
		"method_id": "a9059cbb",
		"parameters": [
			{
				"name": "recipient",
				"type": "address",
				"value": "0x9f132F4926D42deA0D9e0CCd95cD8d554ba1Ff3b"
			},
			{
				"name": "amount",
				"type": "uint256",
				"value": "2221567740944"
			}
		]
	},
	"token_transfers": [
		{
			"block_hash": "0x902ef01c7a20d6359fa424290d30b033eb9b3646ecae3709538cd98fb8d58cf2",
			"block_number": 22564080,
			"from": {
				"ens_domain_name": null,
				"hash": "0x0000000000000000000000000000000000000000",
				"implementations": [],
				"is_contract": false,
				"is_scam": false,
				"is_verified": false,
				"metadata": {
					"tags": [
						{
							"meta": {},
							"name": "Null Address",
							"ordinal": 10,
							"slug": "null-address",
							"tagType": "name"
						},
						{
							"meta": {},
							"name": "Imtoken User",
							"ordinal": 0,
							"slug": "imtoken-user",
							"tagType": "generic"
						},
						{
							"meta": {},
							"name": "Burn",
							"ordinal": 0,
							"slug": "burn",
							"tagType": "generic"
						},
						{
							"meta": {
								"alertStatus": "info",
								"data": "This address is not owned by any user, is often associated with token burn & mint/genesis events and used as a generic null address"
							},
							"name": "note_0",
							"ordinal": 0,
							"slug": "note0",
							"tagType": "note"
						},
						{
							"meta": {},
							"name": "Metamask User",
							"ordinal": 0,
							"slug": "metamask-user",
							"tagType": "generic"
						},
						{
							"meta": {},
							"name": "Null: 0x000...000",
							"ordinal": 10,
							"slug": "null-0x000000",
							"tagType": "name"
						},
						{
							"meta": {},
							"name": "Genesis",
							"ordinal": 0,
							"slug": "genesis",
							"tagType": "generic"
						},
						{
							"meta": {},
							"name": "Miner",
							"ordinal": 0,
							"slug": "miner",
							"tagType": "generic"
						},
						{
							"meta": {},
							"name": "Null",
							"ordinal": 0,
							"slug": "null",
							"tagType": "protocol"
						},
						{
							"meta": {},
							"name": "BLOCKED",
							"ordinal": 0,
							"slug": "blocked",
							"tagType": "generic"
						}
					]
				},
				"name": null,
				"private_tags": [],
				"proxy_type": "unknown",
				"public_tags": [],
				"watchlist_names": []
			},
			"log_index": 221,
			"method": null,
			"timestamp": null,
			"to": {
				"ens_domain_name": null,
				"hash": "0xA5c091b8da7930f4e62001c816B39144B4a292a4",
				"implementations": [],
				"is_contract": false,
				"is_scam": false,
				"is_verified": false,
				"metadata": null,
				"name": null,
				"private_tags": [],
				"proxy_type": null,
				"public_tags": [],
				"watchlist_names": []
			},
			"token": {
				"address": "0x23878914EFE38d27C4D67Ab83ed1b93A74D4086a",
				"address_hash": "0x23878914EFE38d27C4D67Ab83ed1b93A74D4086a",
				"circulating_market_cap": "0.0",
				"decimals": "6",
				"exchange_rate": "0.999996",
				"holders": "6168",
				"holders_count": "6168",
				"icon_url": "https://assets.coingecko.com/coins/images/32884/small/USDT.PNG?1699768611",
				"name": "Aave v3 USDT",
				"symbol": "AUSDT",
				"total_supply": "4156306099320659",
				"type": "ERC-20",
				"volume_24h": "203.2021782736839"
			},
			"total": {
				"decimals": "6",
				"value": "650405887"
			},
			"transaction_hash": "0xd4d9309b26b824b2f87361e217c77183497a71f0878e40b37d63cfb6ee9f7a4b",
			"type": "token_minting"
		},
		{
			"block_hash": "0x902ef01c7a20d6359fa424290d30b033eb9b3646ecae3709538cd98fb8d58cf2",
			"block_number": 22564080,
			"from": {
				"ens_domain_name": null,
				"hash": "0x0000000000000000000000000000000000000000",
				"implementations": [],
				"is_contract": false,
				"is_scam": false,
				"is_verified": false,
				"metadata": {
					"tags": [
						{
							"meta": {},
							"name": "Null Address",
							"ordinal": 10,
							"slug": "null-address",
							"tagType": "name"
						},
						{
							"meta": {},
							"name": "Imtoken User",
							"ordinal": 0,
							"slug": "imtoken-user",
							"tagType": "generic"
						},
						{
							"meta": {},
							"name": "Burn",
							"ordinal": 0,
							"slug": "burn",
							"tagType": "generic"
						},
						{
							"meta": {
								"alertStatus": "info",
								"data": "This address is not owned by any user, is often associated with token burn & mint/genesis events and used as a generic null address"
							},
							"name": "note_0",
							"ordinal": 0,
							"slug": "note0",
							"tagType": "note"
						},
						{
							"meta": {},
							"name": "Metamask User",
							"ordinal": 0,
							"slug": "metamask-user",
							"tagType": "generic"
						},
						{
							"meta": {},
							"name": "Null: 0x000...000",
							"ordinal": 10,
							"slug": "null-0x000000",
							"tagType": "name"
						},
						{
							"meta": {},
							"name": "Genesis",
							"ordinal": 0,
							"slug": "genesis",
							"tagType": "generic"
						},
						{
							"meta": {},
							"name": "Miner",
							"ordinal": 0,
							"slug": "miner",
							"tagType": "generic"
						},
						{
							"meta": {},
							"name": "Null",
							"ordinal": 0,
							"slug": "null",
							"tagType": "protocol"
						},
						{
							"meta": {},
							"name": "BLOCKED",
							"ordinal": 0,
							"slug": "blocked",
							"tagType": "generic"
						}
					]
				},
				"name": null,
				"private_tags": [],
				"proxy_type": "unknown",
				"public_tags": [],
				"watchlist_names": []
			},
			"log_index": 223,
			"method": null,
			"timestamp": null,
			"to": {
				"ens_domain_name": null,
				"hash": "0x9f132F4926D42deA0D9e0CCd95cD8d554ba1Ff3b",
				"implementations": [],
				"is_contract": false,
				"is_scam": false,
				"is_verified": false,
				"metadata": null,
				"name": null,
				"private_tags": [],
				"proxy_type": null,
				"public_tags": [],
				"watchlist_names": []
			},
			"token": {
				"address": "0x23878914EFE38d27C4D67Ab83ed1b93A74D4086a",
				"address_hash": "0x23878914EFE38d27C4D67Ab83ed1b93A74D4086a",
				"circulating_market_cap": "0.0",
				"decimals": "6",
				"exchange_rate": "0.999996",
				"holders": "6168",
				"holders_count": "6168",
				"icon_url": "https://assets.coingecko.com/coins/images/32884/small/USDT.PNG?1699768611",
				"name": "Aave v3 USDT",
				"symbol": "AUSDT",
				"total_supply": "4156306099320659",
				"type": "ERC-20",
				"volume_24h": "203.2021782736839"
			},
			"total": {
				"decimals": "6",
				"value": "38"
			},
			"transaction_hash": "0xd4d9309b26b824b2f87361e217c77183497a71f0878e40b37d63cfb6ee9f7a4b",
			"type": "token_minting"
		},
		{
			"block_hash": "0x902ef01c7a20d6359fa424290d30b033eb9b3646ecae3709538cd98fb8d58cf2",
			"block_number": 22564080,
			"from": {
				"ens_domain_name": null,
				"hash": "0xA5c091b8da7930f4e62001c816B39144B4a292a4",
				"implementations": [],
				"is_contract": false,
				"is_scam": false,
				"is_verified": false,
				"metadata": null,
				"name": null,
				"private_tags": [],
				"proxy_type": null,
				"public_tags": [],
				"watchlist_names": []
			},
			"log_index": 225,
			"method": null,
			"timestamp": null,
			"to": {
				"ens_domain_name": null,
				"hash": "0x9f132F4926D42deA0D9e0CCd95cD8d554ba1Ff3b",
				"implementations": [],
				"is_contract": false,
				"is_scam": false,
				"is_verified": false,
				"metadata": null,
				"name": null,
				"private_tags": [],
				"proxy_type": null,
				"public_tags": [],
				"watchlist_names": []
			},
			"token": {
				"address": "0x23878914EFE38d27C4D67Ab83ed1b93A74D4086a",
				"address_hash": "0x23878914EFE38d27C4D67Ab83ed1b93A74D4086a",
				"circulating_market_cap": "0.0",
				"decimals": "6",
				"exchange_rate": "0.999996",
				"holders": "6168",
				"holders_count": "6168",
				"icon_url": "https://assets.coingecko.com/coins/images/32884/small/USDT.PNG?1699768611",
				"name": "Aave v3 USDT",
				"symbol": "AUSDT",
				"total_supply": "4156306099320659",
				"type": "ERC-20",
				"volume_24h": "203.2021782736839"
			},
			"total": {
				"decimals": "6",
				"value": "2221567740944"
			},
			"transaction_hash": "0xd4d9309b26b824b2f87361e217c77183497a71f0878e40b37d63cfb6ee9f7a4b",
			"type": "token_transfer"
		}
	],
	"base_fee_per_gas": "416318771",
	"timestamp": "2025-05-26T02:45:11.000000Z",
	"nonce": 166,
	"historic_exchange_rate": "2556.59",
	"transaction_types": [
		"contract_call",
		"token_transfer"
	],
	"exchange_rate": "2552.71",
	"block_number": 22564080,
	"has_error_in_internal_transactions": false
}