{
	"priority_fee": "5935850000000",
	"raw_input": "0x097da1f8000000000000000000000000000000000000000000000000000000000000000000000000000000000000000000000000000000000000000000000000000000800000000000000000000000004dceb440657f21083db8add07665f8ddbe1dcfc0000000000000000000000000000000000000000000000000000000000000000000000000000000000000000000000000000000000000000000000000000001e410b98a353e3704d192a14c156e4b41e00f1676b53b0914cd36ed9fa3d00452ecffeb2e16a78efb2f02e721019ea5899d7d5b991a6f8a93ccc050bcb15d6516eeef10b832f56dcf06f924aa0f647a65036925a746d9c93d7c53f269e67e0c40cd04770814ca2646239fb37c9a9af5edd49e95fc306bdaf67c1b9069fa9cd9a8187828989600000000000000000000000000000000000000000000000000000000000d54a50000000000000000000000000000000000000000000000000000000000000000000000000000000000000000000000000000000000000000000000000000000151e46d542015c9c12b4fe8eb4b815089271baad26061032df255d82aab8186090000000000000000000000000000000000000000000000000000000000000000184884e1eb9fefdc158f6c8ac912bb183bf3cf83f0090317e0bc4ac5860baa390000000000000000000000000000000000000000000000c328093e61ee400000000000000000000000000000a5565d266c3c3ee90b16be8a5b13d587ef559fb0000000000000000000000000000000000000000000000000000000000000b2fa00000000000000000000000000000000000000000000000000000000000d54a5fcd494b4d4825c3c49e5211691d5684fd03096f2d955c2130ec769adcf2c237e00000000000000000000000000000000000000000000000000000000",
	"result": "success",
	"hash": "0xf1ad28f8d821b07cffe8d3f6adb737875e5e018b0eb9e7c0774bf3d60c747241",
	"max_fee_per_gas": "6115337020",
	"revert_reason": null,
	"confirmation_duration": [
		0,
		12000
	],
	"transaction_burnt_fee": "64718806778641",
	"type": 2,
	"token_transfers_overflow": false,
	"confirmations": 173152,
	"position": 151,
	"max_priority_fee_per_gas": "50000000",
	"transaction_tag": null,
	"created_contract": null,
	"value": "0",
	"from": {
		"ens_domain_name": null,
		"hash": "0xF856D7B9025907f441fE60232f84F6B61476942A",
		"implementations": [],
		"is_contract": false,
		"is_scam": false,
		"is_verified": false,
		"metadata": null,
		"name": null,
		"private_tags": [],
		"proxy_type": null,
		"public_tags": [],
		"watchlist_names": []
	},
	"gas_used": "118717",
	"status": "ok",
	"to": {
		"ens_domain_name": null,
		"hash": "0x1B2988478Be18a69de983ca50eAF21Ef8De1248B",
		"implementations": [
			{
				"address": "0x5Bc5FB83950bBbF156E433c5c098bFe533Db4021",
				"address_hash": "0x5Bc5FB83950bBbF156E433c5c098bFe533Db4021",
				"name": "ValidatorWallet"
			}
		],
		"is_contract": true,
		"is_scam": false,
		"is_verified": true,
		"metadata": null,
		"name": "TransparentUpgradeableProxy",
		"private_tags": [],
		"proxy_type": "eip1967",
		"public_tags": [],
		"watchlist_names": []
	},
	"authorization_list": [],
	"method": "executeTransactionWithGasRefunder",
	"fee": {
		"type": "actual",
		"value": "70654656778641"
	},
	"actions": [],
	"gas_limit": "172937",
	"gas_price": "595151973",
	"decoded_input": {
		"method_call": "executeTransactionWithGasRefunder(address gasRefunder, bytes data, address destination, uint256 amount)",
		"method_id": "097da1f8",
		"parameters": [
			{
				"name": "gasRefunder",
				"type": "address",
				"value": "0x0000000000000000000000000000000000000000"
			},
			{
				"name": "data",
				"type": "bytes",
				"value": "0x10b98a353e3704d192a14c156e4b41e00f1676b53b0914cd36ed9fa3d00452ecffeb2e16a78efb2f02e721019ea5899d7d5b991a6f8a93ccc050bcb15d6516eeef10b832f56dcf06f924aa0f647a65036925a746d9c93d7c53f269e67e0c40cd04770814ca2646239fb37c9a9af5edd49e95fc306bdaf67c1b9069fa9cd9a8187828989600000000000000000000000000000000000000000000000000000000000d54a50000000000000000000000000000000000000000000000000000000000000000000000000000000000000000000000000000000000000000000000000000000151e46d542015c9c12b4fe8eb4b815089271baad26061032df255d82aab8186090000000000000000000000000000000000000000000000000000000000000000184884e1eb9fefdc158f6c8ac912bb183bf3cf83f0090317e0bc4ac5860baa390000000000000000000000000000000000000000000000c328093e61ee400000000000000000000000000000a5565d266c3c3ee90b16be8a5b13d587ef559fb0000000000000000000000000000000000000000000000000000000000000b2fa00000000000000000000000000000000000000000000000000000000000d54a5fcd494b4d4825c3c49e5211691d5684fd03096f2d955c2130ec769adcf2c237e"
			},
			{
				"name": "destination",
				"type": "address",
				"value": "0x4DCeB440657f21083db8aDd07665f8ddBe1DCfc0"
			},
			{
				"name": "amount",
				"type": "uint256",
				"value": "0"
			}
		]
	},
	"token_transfers": [],
	"base_fee_per_gas": "545151973",
	"timestamp": "2025-05-01T19:37:23.000000Z",
	"nonce": 3761,
	"historic_exchange_rate": "1797.67",
	"transaction_types": [
		"contract_call"
	],
	"exchange_rate": "2553.64",
	"block_number": 22391131,
	"has_error_in_internal_transactions": false
}